{
  "contractName": "Exercise4",
  "abi": [
    {
      "inputs": [
        {
          "internalType": "int256",
          "name": "nombre",
          "type": "int256"
        }
      ],
      "name": "estPositif",
      "outputs": [
        {
          "internalType": "bool",
          "name": "",
          "type": "bool"
        }
      ],
      "stateMutability": "pure",
      "type": "function",
      "constant": true
    }
  ],
  "bytecode": "0x6080604052348015600f57600080fd5b5060a08061001e6000396000f3fe6080604052348015600f57600080fd5b506004361060285760003560e01c8063fa046abd14602d575b600080fd5b603e60383660046052565b60001290565b604051901515815260200160405180910390f35b600060208284031215606357600080fd5b503591905056fea2646970667358221220fef9093f5b77b3b87b31ae61b5902f752d6b4055067f2bb1c2c57f5f9114390964736f6c63430008150033",
  "immutableReferences": {},
  "source": "// SPDX-License-Identifier: MIT\npragma solidity ^0.8.0;\n\ncontract Exercise4 {\n    // Indique si un entier est strictement positif.\n    function estPositif(int nombre) public pure returns (bool) {\n        return nombre > 0;\n    }\n}",
  "sourcePath": "C:\\Users\\hp\\Desktop\\Projet_Blockchaine\\contracts\\Exercise4.sol",
  "compiler": {
    "name": "solc",
    "version": "0.8.21+commit.d9974bed.Emscripten.clang"
  },
  "schemaVersion": "3.4.16",
  "updatedAt": "2026-06-15T18:01:08.820Z",
  "networkType": "ethereum",
  "devdoc": {
    "kind": "dev",
    "methods": {},
    "version": 1
  },
  "userdoc": {
    "kind": "user",
    "methods": {},
    "version": 1
  }
}