{
  "contractName": "Exercise6",
  "abi": [
    {
      "inputs": [],
      "stateMutability": "nonpayable",
      "type": "constructor"
    },
    {
      "inputs": [
        {
          "internalType": "uint256",
          "name": "",
          "type": "uint256"
        }
      ],
      "name": "nombres",
      "outputs": [
        {
          "internalType": "uint256",
          "name": "",
          "type": "uint256"
        }
      ],
      "stateMutability": "view",
      "type": "function",
      "constant": true
    },
    {
      "inputs": [
        {
          "internalType": "uint256",
          "name": "_nombre",
          "type": "uint256"
        }
      ],
      "name": "ajouterNombre",
      "outputs": [],
      "stateMutability": "nonpayable",
      "type": "function"
    },
    {
      "inputs": [
        {
          "internalType": "uint256",
          "name": "index",
          "type": "uint256"
        }
      ],
      "name": "getElement",
      "outputs": [
        {
          "internalType": "uint256",
          "name": "",
          "type": "uint256"
        }
      ],
      "stateMutability": "view",
      "type": "function",
      "constant": true
    },
    {
      "inputs": [],
      "name": "afficheTableau",
      "outputs": [
        {
          "internalType": "uint256[]",
          "name": "",
          "type": "uint256[]"
        }
      ],
      "stateMutability": "view",
      "type": "function",
      "constant": true
    },
    {
      "inputs": [],
      "name": "calculerSomme",
      "outputs": [
        {
          "internalType": "uint256",
          "name": "",
          "type": "uint256"
        }
      ],
      "stateMutability": "view",
      "type": "function",
      "constant": true
    }
  ],
  "bytecode": "0x608060405234801561001057600080fd5b506000805460018181018355828052600a7f290decd9548b62a8d60345a988386fc84ba6bc95484008f6362f93160ef3e563928301558254808201845560149083015582548082018455601e90830155825490810190925560289101556103248061007c6000396000f3fe608060405234801561001057600080fd5b50600436106100575760003560e01c80631f4440b01461005c5780633a7d22bc1461007a5780637692fb5f1461009b578063bd92c667146100ae578063e66df334146100f0575b600080fd5b6100646100f8565b6040516100719190610233565b60405180910390f35b61008d610088366004610277565b610150565b604051908152602001610071565b61008d6100a9366004610277565b6101c0565b6100ee6100bc366004610277565b600080546001810182559080527f290decd9548b62a8d60345a988386fc84ba6bc95484008f6362f93160ef3e5630155565b005b61008d6101e1565b6060600080548060200260200160405190810160405280929190818152602001828054801561014657602002820191906000526020600020905b815481526020019060010190808311610132575b5050505050905090565b60008054821061019b5760405162461bcd60e51b8152602060048201526012602482015271496e64657820686f7273206c696d6974657360701b604482015260640160405180910390fd5b600082815481106101ae576101ae610290565b90600052602060002001549050919050565b600081815481106101d057600080fd5b600091825260209091200154905081565b600080805b60005481101561022d576000818154811061020357610203610290565b90600052602060002001548261021991906102bc565b915080610225816102d5565b9150506101e6565b50919050565b6020808252825182820181905260009190848201906040850190845b8181101561026b5783518352928401929184019160010161024f565b50909695505050505050565b60006020828403121561028957600080fd5b5035919050565b634e487b7160e01b600052603260045260246000fd5b634e487b7160e01b600052601160045260246000fd5b808201808211156102cf576102cf6102a6565b92915050565b6000600182016102e7576102e76102a6565b506001019056fea264697066735822122080f34faf7adf7828865d9f473b95630d8b844b4e87e9c3bce355e45079f8dc9564736f6c63430008150033",
  "immutableReferences": {},
  "source": "// SPDX-License-Identifier: MIT\npragma solidity ^0.8.0;\n\ncontract Exercise6 {\n    uint[] public nombres;\n\n    constructor() {\n        // Valeurs de depart pour tester les lectures.\n        nombres.push(10);\n        nombres.push(20);\n        nombres.push(30);\n        nombres.push(40);\n    }\n\n    // Ajoute un nombre au tableau.\n    function ajouterNombre(uint _nombre) public {\n        nombres.push(_nombre);\n    }\n\n    // Lit un element par son index.\n    function getElement(uint index) public view returns (uint) {\n        require(index < nombres.length, \"Index hors limites\");\n        return nombres[index];\n    }\n\n    // Retourne tout le tableau.\n    function afficheTableau() public view returns (uint[] memory) {\n        return nombres;\n    }\n\n    // Additionne toutes les valeurs du tableau.\n    function calculerSomme() public view returns (uint) {\n        uint somme = 0;\n\n        for (uint i = 0; i < nombres.length; i++) {\n            somme += nombres[i];\n        }\n\n        return somme;\n    }\n}",
  "sourcePath": "C:\\Users\\hp\\Desktop\\Projet_Blockchaine\\contracts\\Exercise6.sol",
  "compiler": {
    "name": "solc",
    "version": "0.8.21+commit.d9974bed.Emscripten.clang"
  },
  "schemaVersion": "3.4.16",
  "updatedAt": "2026-06-15T18:01:10.012Z",
  "networkType": "ethereum",
  "devdoc": {
    "kind": "dev",
    "methods": {},
    "version": 1
  },
  "userdoc": {
    "kind": "user",
    "methods": {},
    "version": 1
  }
}