{
  "contractName": "Exercise5",
  "abi": [
    {
      "inputs": [
        {
          "internalType": "uint256",
          "name": "nombre",
          "type": "uint256"
        }
      ],
      "name": "estPair",
      "outputs": [
        {
          "internalType": "bool",
          "name": "",
          "type": "bool"
        }
      ],
      "stateMutability": "pure",
      "type": "function",
      "constant": true
    },
    {
      "inputs": [
        {
          "internalType": "uint256",
          "name": "nombre",
          "type": "uint256"
        }
      ],
      "name": "estImpair",
      "outputs": [
        {
          "internalType": "bool",
          "name": "",
          "type": "bool"
        }
      ],
      "stateMutability": "pure",
      "type": "function",
      "constant": true
    }
  ],
  "bytecode": "0x608060405234801561001057600080fd5b5060fd8061001f6000396000f3fe6080604052348015600f57600080fd5b506004361060325760003560e01c80631cee907f14603757806375afe27214605a575b600080fd5b60466042366004608e565b6069565b604051901515815260200160405180910390f35b60466065366004608e565b607b565b6000607460028360a6565b1592915050565b6000608660028360a6565b151592915050565b600060208284031215609f57600080fd5b5035919050565b60008260c257634e487b7160e01b600052601260045260246000fd5b50069056fea2646970667358221220349b24f1af01494ba9f07b5245ea6df8bd28dc729b605f6777311771199a1a4764736f6c63430008150033",
  "immutableReferences": {},
  "source": "// SPDX-License-Identifier: MIT\npragma solidity ^0.8.0;\n\ncontract Exercise5 {\n    // Teste si un nombre est pair.\n    function estPair(uint nombre) public pure returns (bool) {\n        return nombre % 2 == 0;\n    }\n\n    // Teste si un nombre est impair.\n    function estImpair(uint nombre) public pure returns (bool) {\n        return nombre % 2 != 0;\n    }\n}",
  "sourcePath": "C:\\Users\\hp\\Desktop\\Projet_Blockchaine\\contracts\\Exercise5.sol",
  "compiler": {
    "name": "solc",
    "version": "0.8.21+commit.d9974bed.Emscripten.clang"
  },
  "schemaVersion": "3.4.16",
  "updatedAt": "2026-06-15T18:01:09.466Z",
  "networkType": "ethereum",
  "devdoc": {
    "kind": "dev",
    "methods": {},
    "version": 1
  },
  "userdoc": {
    "kind": "user",
    "methods": {},
    "version": 1
  }
}