{
  "contractName": "Exercise1",
  "abi": [
    {
      "inputs": [],
      "name": "nombre1",
      "outputs": [
        {
          "internalType": "uint256",
          "name": "",
          "type": "uint256"
        }
      ],
      "stateMutability": "view",
      "type": "function",
      "constant": true
    },
    {
      "inputs": [],
      "name": "nombre2",
      "outputs": [
        {
          "internalType": "uint256",
          "name": "",
          "type": "uint256"
        }
      ],
      "stateMutability": "view",
      "type": "function",
      "constant": true
    },
    {
      "inputs": [],
      "name": "addition1",
      "outputs": [
        {
          "internalType": "uint256",
          "name": "",
          "type": "uint256"
        }
      ],
      "stateMutability": "view",
      "type": "function",
      "constant": true
    },
    {
      "inputs": [
        {
          "internalType": "uint256",
          "name": "a",
          "type": "uint256"
        },
        {
          "internalType": "uint256",
          "name": "b",
          "type": "uint256"
        }
      ],
      "name": "addition2",
      "outputs": [
        {
          "internalType": "uint256",
          "name": "",
          "type": "uint256"
        }
      ],
      "stateMutability": "pure",
      "type": "function",
      "constant": true
    },
    {
      "inputs": [
        {
          "internalType": "uint256",
          "name": "_nombre1",
          "type": "uint256"
        },
        {
          "internalType": "uint256",
          "name": "_nombre2",
          "type": "uint256"
        }
      ],
      "name": "setNombres",
      "outputs": [],
      "stateMutability": "nonpayable",
      "type": "function"
    }
  ],
  "bytecode": "0x608060405234801561001057600080fd5b5061015b806100206000396000f3fe608060405234801561001057600080fd5b50600436106100575760003560e01c80634d3e46e41461005c57806356620c8a146100765780637a5ba4041461007f5780639ac7c4e614610088578063f1d16438146100a3575b600080fd5b6100646100b6565b60405190815260200160405180910390f35b61006460015481565b61006460005481565b6100a16100963660046100e2565b600091909155600155565b005b6100646100b13660046100e2565b6100cd565b60006001546000546100c89190610104565b905090565b60006100d98284610104565b90505b92915050565b600080604083850312156100f557600080fd5b50508035926020909101359150565b808201808211156100dc57634e487b7160e01b600052601160045260246000fdfea26469706673582212207b41729b61550a0b983b44b7269512f61124258ca0e4559fc6b7f5ad59e5891e64736f6c63430008150033",
  "immutableReferences": {},
  "source": "// SPDX-License-Identifier: MIT\npragma solidity ^0.8.0;\n\ncontract Exercise1 {\n    uint public nombre1;\n    uint public nombre2;\n\n    // Lit les deux nombres stockes et retourne leur somme.\n    function addition1() public view returns (uint) {\n        return nombre1 + nombre2;\n    }\n\n    // Calcule une somme sans modifier la blockchain.\n    function addition2(uint a, uint b) public pure returns (uint) {\n        return a + b;\n    }\n\n    // Enregistre deux nombres pour les lectures suivantes.\n    function setNombres(uint _nombre1, uint _nombre2) public {\n        nombre1 = _nombre1;\n        nombre2 = _nombre2;\n    }\n}",
  "sourcePath": "C:\\Users\\hp\\Desktop\\Projet_Blockchaine\\contracts\\Exercise1.sol",
  "compiler": {
    "name": "solc",
    "version": "0.8.21+commit.d9974bed.Emscripten.clang"
  },
  "schemaVersion": "3.4.16",
  "updatedAt": "2026-06-15T18:01:07.575Z",
  "networkType": "ethereum",
  "devdoc": {
    "kind": "dev",
    "methods": {},
    "version": 1
  },
  "userdoc": {
    "kind": "user",
    "methods": {},
    "version": 1
  }
}