{
  "contractName": "Exercise2",
  "abi": [
    {
      "inputs": [
        {
          "internalType": "uint256",
          "name": "montantEther",
          "type": "uint256"
        }
      ],
      "name": "etherEnWei",
      "outputs": [
        {
          "internalType": "uint256",
          "name": "",
          "type": "uint256"
        }
      ],
      "stateMutability": "pure",
      "type": "function",
      "constant": true
    },
    {
      "inputs": [
        {
          "internalType": "uint256",
          "name": "montantWei",
          "type": "uint256"
        }
      ],
      "name": "weiEnEther",
      "outputs": [
        {
          "internalType": "uint256",
          "name": "",
          "type": "uint256"
        }
      ],
      "stateMutability": "pure",
      "type": "function",
      "constant": true
    }
  ],
  "bytecode": "0x608060405234801561001057600080fd5b50610124806100206000396000f3fe6080604052348015600f57600080fd5b506004361060325760003560e01c806318b5d6e5146037578063b5fcda34146058575b600080fd5b604660423660046091565b6067565b60405190815260200160405180910390f35b604660633660046091565b607f565b60006079670de0b6b3a76400008360a9565b92915050565b6000607982670de0b6b3a764000060ca565b60006020828403121560a257600080fd5b5035919050565b60008260c557634e487b7160e01b600052601260045260246000fd5b500490565b8082028115828204841417607957634e487b7160e01b600052601160045260246000fdfea2646970667358221220fdb936e4725ca25316712d75864efd35c8bb0de89f53d777ed8515d27bbf9c1364736f6c63430008150033",
  "immutableReferences": {},
  "source": "// SPDX-License-Identifier: MIT\npragma solidity ^0.8.0;\n\ncontract Exercise2 {\n    // Convertit un montant en ether vers wei.\n    function etherEnWei(uint montantEther) public pure returns (uint) {\n        return montantEther * 1 ether;\n    }\n\n    // Convertit un montant en wei vers ether entier.\n    function weiEnEther(uint montantWei) public pure returns (uint) {\n        return montantWei / 1 ether;\n    }\n}",
  "sourcePath": "C:\\Users\\hp\\Desktop\\Projet_Blockchaine\\contracts\\Exercise2.sol",
  "compiler": {
    "name": "solc",
    "version": "0.8.21+commit.d9974bed.Emscripten.clang"
  },
  "schemaVersion": "3.4.16",
  "updatedAt": "2026-06-15T18:01:07.960Z",
  "networkType": "ethereum",
  "devdoc": {
    "kind": "dev",
    "methods": {},
    "version": 1
  },
  "userdoc": {
    "kind": "user",
    "methods": {},
    "version": 1
  }
}