{
  "contractName": "GestionChaines",
  "abi": [
    {
      "inputs": [],
      "name": "message",
      "outputs": [
        {
          "internalType": "string",
          "name": "",
          "type": "string"
        }
      ],
      "stateMutability": "view",
      "type": "function",
      "constant": true
    },
    {
      "inputs": [
        {
          "internalType": "string",
          "name": "_message",
          "type": "string"
        }
      ],
      "name": "setMessage",
      "outputs": [],
      "stateMutability": "nonpayable",
      "type": "function"
    },
    {
      "inputs": [],
      "name": "getMessage",
      "outputs": [
        {
          "internalType": "string",
          "name": "",
          "type": "string"
        }
      ],
      "stateMutability": "view",
      "type": "function",
      "constant": true
    },
    {
      "inputs": [
        {
          "internalType": "string",
          "name": "a",
          "type": "string"
        },
        {
          "internalType": "string",
          "name": "b",
          "type": "string"
        }
      ],
      "name": "concatener",
      "outputs": [
        {
          "internalType": "string",
          "name": "",
          "type": "string"
        }
      ],
      "stateMutability": "pure",
      "type": "function",
      "constant": true
    },
    {
      "inputs": [
        {
          "internalType": "string",
          "name": "_texte",
          "type": "string"
        }
      ],
      "name": "concatenerAvec",
      "outputs": [
        {
          "internalType": "string",
          "name": "",
          "type": "string"
        }
      ],
      "stateMutability": "view",
      "type": "function",
      "constant": true
    },
    {
      "inputs": [
        {
          "internalType": "string",
          "name": "_texte",
          "type": "string"
        }
      ],
      "name": "longueur",
      "outputs": [
        {
          "internalType": "uint256",
          "name": "",
          "type": "uint256"
        }
      ],
      "stateMutability": "pure",
      "type": "function",
      "constant": true
    },
    {
      "inputs": [
        {
          "internalType": "string",
          "name": "a",
          "type": "string"
        },
        {
          "internalType": "string",
          "name": "b",
          "type": "string"
        }
      ],
      "name": "comparer",
      "outputs": [
        {
          "internalType": "bool",
          "name": "",
          "type": "bool"
        }
      ],
      "stateMutability": "pure",
      "type": "function",
      "constant": true
    }
  ],
  "bytecode": "0x60c0604052601060809081526f426f6e6a6f757220536f6c696469747960801b60a05260009061002f90826100e1565b5034801561003c57600080fd5b506101a0565b634e487b7160e01b600052604160045260246000fd5b600181811c9082168061006c57607f821691505b60208210810361008c57634e487b7160e01b600052602260045260246000fd5b50919050565b601f8211156100dc57600081815260208120601f850160051c810160208610156100b95750805b601f850160051c820191505b818110156100d8578281556001016100c5565b5050505b505050565b81516001600160401b038111156100fa576100fa610042565b61010e816101088454610058565b84610092565b602080601f831160018114610143576000841561012b5750858301515b600019600386901b1c1916600185901b1785556100d8565b600085815260208120601f198616915b8281101561017257888601518255948401946001909101908401610153565b50858210156101905787850151600019600388901b60f8161c191681555b5050505050600190811b01905550565b610682806101af6000396000f3fe608060405234801561001057600080fd5b506004361061007d5760003560e01c80634f7596871161005b5780634f759687146100f05780639103ca3314610110578063ce6d41de14610123578063e21f37ce1461012b57600080fd5b806317646f8914610082578063368b8772146100bb578063413d4384146100d0575b600080fd5b6100a661009036600461035e565b8051602091820120825192909101919091201490565b60405190151581526020015b60405180910390f35b6100ce6100c93660046103c2565b610133565b005b6100e36100de3660046103c2565b610143565b6040516100b29190610423565b6101026100fe3660046103c2565b5190565b6040519081526020016100b2565b6100e361011e36600461035e565b61016f565b6100e361019b565b6100e361022d565b600061013f82826104df565b5050565b606060008260405160200161015992919061059f565b6040516020818303038152906040529050919050565b60608282604051602001610184929190610626565b604051602081830303815290604052905092915050565b6060600080546101aa90610456565b80601f01602080910402602001604051908101604052809291908181526020018280546101d690610456565b80156102235780601f106101f857610100808354040283529160200191610223565b820191906000526020600020905b81548152906001019060200180831161020657829003601f168201915b5050505050905090565b6000805461023a90610456565b80601f016020809104026020016040519081016040528092919081815260200182805461026690610456565b80156102b35780601f10610288576101008083540402835291602001916102b3565b820191906000526020600020905b81548152906001019060200180831161029657829003601f168201915b505050505081565b634e487b7160e01b600052604160045260246000fd5b600082601f8301126102e257600080fd5b813567ffffffffffffffff808211156102fd576102fd6102bb565b604051601f8301601f19908116603f01168101908282118183101715610325576103256102bb565b8160405283815286602085880101111561033e57600080fd5b836020870160208301376000602085830101528094505050505092915050565b6000806040838503121561037157600080fd5b823567ffffffffffffffff8082111561038957600080fd5b610395868387016102d1565b935060208501359150808211156103ab57600080fd5b506103b8858286016102d1565b9150509250929050565b6000602082840312156103d457600080fd5b813567ffffffffffffffff8111156103eb57600080fd5b6103f7848285016102d1565b949350505050565b60005b8381101561041a578181015183820152602001610402565b50506000910152565b60208152600082518060208401526104428160408501602087016103ff565b601f01601f19169190910160400192915050565b600181811c9082168061046a57607f821691505b60208210810361048a57634e487b7160e01b600052602260045260246000fd5b50919050565b601f8211156104da57600081815260208120601f850160051c810160208610156104b75750805b601f850160051c820191505b818110156104d6578281556001016104c3565b5050505b505050565b815167ffffffffffffffff8111156104f9576104f96102bb565b61050d816105078454610456565b84610490565b602080601f831160018114610542576000841561052a5750858301515b600019600386901b1c1916600185901b1785556104d6565b600085815260208120601f198616915b8281101561057157888601518255948401946001909101908401610552565b508582101561058f5787850151600019600388901b60f8161c191681555b5050505050600190811b01905550565b60008084546105ad81610456565b600182811680156105c557600181146105da57610609565b60ff1984168752821515830287019450610609565b8860005260208060002060005b858110156106005781548a8201529084019082016105e7565b50505082870194505b50505050835161061d8183602088016103ff565b01949350505050565b600083516106388184602088016103ff565b83519083019061061d8183602088016103ff56fea2646970667358221220f7c0052df101a112bf58b844508e604d41b44b2b9fe0c8830fc38877e154c6f064736f6c63430008150033",
  "immutableReferences": {},
  "source": "// SPDX-License-Identifier: MIT\npragma solidity ^0.8.0;\n\ncontract GestionChaines {\n    string public message = \"Bonjour Solidity\";\n\n    // Modifie le message stocke dans le contrat.\n    function setMessage(string memory _message) public {\n        message = _message;\n    }\n\n    // Lit le message courant.\n    function getMessage() public view returns (string memory) {\n        return message;\n    }\n\n    // Assemble deux chaines passees en parametres.\n    function concatener(string memory a, string memory b) public pure returns (string memory) {\n        return string.concat(a, b);\n    }\n\n    // Assemble le message stocke avec une autre chaine.\n    function concatenerAvec(string memory _texte) public view returns (string memory) {\n        return string.concat(message, _texte);\n    }\n\n    // Retourne la longueur en octets de la chaine.\n    function longueur(string memory _texte) public pure returns (uint) {\n        return bytes(_texte).length;\n    }\n\n    // Compare deux chaines avec leur hash.\n    function comparer(string memory a, string memory b) public pure returns (bool) {\n        return keccak256(bytes(a)) == keccak256(bytes(b));\n    }\n}",
  "sourcePath": "C:\\Users\\hp\\Desktop\\Projet_Blockchaine\\contracts\\Exercice3.sol",
  "compiler": {
    "name": "solc",
    "version": "0.8.21+commit.d9974bed.Emscripten.clang"
  },
  "schemaVersion": "3.4.16",
  "updatedAt": "2026-06-15T18:01:08.484Z",
  "networkType": "ethereum",
  "devdoc": {
    "kind": "dev",
    "methods": {},
    "version": 1
  },
  "userdoc": {
    "kind": "user",
    "methods": {},
    "version": 1
  }
}