{
  "contractName": "Payment",
  "abi": [
    {
      "inputs": [
        {
          "internalType": "address",
          "name": "_recipient",
          "type": "address"
        }
      ],
      "stateMutability": "nonpayable",
      "type": "constructor"
    },
    {
      "inputs": [],
      "name": "recipient",
      "outputs": [
        {
          "internalType": "address",
          "name": "",
          "type": "address"
        }
      ],
      "stateMutability": "view",
      "type": "function",
      "constant": true
    },
    {
      "stateMutability": "payable",
      "type": "receive",
      "payable": true
    },
    {
      "inputs": [],
      "name": "receivePayment",
      "outputs": [],
      "stateMutability": "payable",
      "type": "function",
      "payable": true
    },
    {
      "inputs": [],
      "name": "withdraw",
      "outputs": [],
      "stateMutability": "nonpayable",
      "type": "function"
    },
    {
      "inputs": [],
      "name": "getBalance",
      "outputs": [
        {
          "internalType": "uint256",
          "name": "",
          "type": "uint256"
        }
      ],
      "stateMutability": "view",
      "type": "function",
      "constant": true
    }
  ],
  "bytecode": "0x608060405234801561001057600080fd5b506040516102bb3803806102bb83398101604081905261002f91610054565b600080546001600160a01b0319166001600160a01b0392909216919091179055610084565b60006020828403121561006657600080fd5b81516001600160a01b038116811461007d57600080fd5b9392505050565b610228806100936000396000f3fe6080604052600436106100435760003560e01c806312065fe0146100785780633ccfd60b1461009857806366d003ac146100ad578063835c19f3146100e557600080fd5b3661007357600034116100715760405162461bcd60e51b8152600401610068906101b0565b60405180910390fd5b005b600080fd5b34801561008457600080fd5b506040514781526020015b60405180910390f35b3480156100a457600080fd5b506100716100ed565b3480156100b957600080fd5b506000546100cd906001600160a01b031681565b6040516001600160a01b03909116815260200161008f565b61007161018e565b6000546001600160a01b031633146101515760405162461bcd60e51b815260206004820152602160248201527f5365756c206c652064657374696e6174616972652070657574207265746972656044820152603960f91b6064820152608401610068565b600080546040516001600160a01b03909116914780156108fc02929091818181858888f1935050505015801561018b573d6000803e3d6000fd5b50565b600034116101ae5760405162461bcd60e51b8152600401610068906101b0565b565b60208082526022908201527f4c65206d6f6e74616e7420646f69742065747265207375706572696575722061604082015261020360f41b60608201526080019056fea26469706673582212209416c5ff06109cd0dc56e7eaed705e165db644e8772ff3627fedde97ca3b1e7f64736f6c63430008150033",
  "immutableReferences": {},
  "source": "// SPDX-License-Identifier: MIT\npragma solidity ^0.8.0;\n\ncontract Payment {\n    address public recipient;\n\n    constructor(address _recipient) {\n        recipient = _recipient;\n    }\n\n    // Accepte un paiement envoye via la fonction.\n    function receivePayment() public payable {\n        require(msg.value > 0, \"Le montant doit etre superieur a 0\");\n    }\n\n    // Accepte aussi un transfert direct vers l'adresse du contrat.\n    receive() external payable {\n        require(msg.value > 0, \"Le montant doit etre superieur a 0\");\n    }\n\n    // Transfere tout le solde au destinataire.\n    function withdraw() public {\n        require(msg.sender == recipient, \"Seul le destinataire peut retirer\");\n        payable(recipient).transfer(address(this).balance);\n    }\n\n    // Lit le solde du contrat en wei.\n    function getBalance() public view returns (uint) {\n        return address(this).balance;\n    }\n}",
  "sourcePath": "C:\\Users\\hp\\Desktop\\Projet_Blockchaine\\contracts\\Exercise8.sol",
  "compiler": {
    "name": "solc",
    "version": "0.8.21+commit.d9974bed.Emscripten.clang"
  },
  "schemaVersion": "3.4.16",
  "updatedAt": "2026-06-15T18:01:10.708Z",
  "networkType": "ethereum",
  "devdoc": {
    "kind": "dev",
    "methods": {},
    "version": 1
  },
  "userdoc": {
    "kind": "user",
    "methods": {},
    "version": 1
  }
}