{
  "contractName": "Rectangle",
  "abi": [
    {
      "inputs": [
        {
          "internalType": "uint256",
          "name": "_x",
          "type": "uint256"
        },
        {
          "internalType": "uint256",
          "name": "_y",
          "type": "uint256"
        },
        {
          "internalType": "uint256",
          "name": "_lo",
          "type": "uint256"
        },
        {
          "internalType": "uint256",
          "name": "_la",
          "type": "uint256"
        }
      ],
      "stateMutability": "nonpayable",
      "type": "constructor"
    },
    {
      "inputs": [],
      "name": "afficheXY",
      "outputs": [
        {
          "internalType": "string",
          "name": "",
          "type": "string"
        }
      ],
      "stateMutability": "view",
      "type": "function",
      "constant": true
    },
    {
      "inputs": [
        {
          "internalType": "uint256",
          "name": "dx",
          "type": "uint256"
        },
        {
          "internalType": "uint256",
          "name": "dy",
          "type": "uint256"
        }
      ],
      "name": "deplacerForme",
      "outputs": [],
      "stateMutability": "nonpayable",
      "type": "function"
    },
    {
      "inputs": [],
      "name": "la",
      "outputs": [
        {
          "internalType": "uint256",
          "name": "",
          "type": "uint256"
        }
      ],
      "stateMutability": "view",
      "type": "function",
      "constant": true
    },
    {
      "inputs": [],
      "name": "lo",
      "outputs": [
        {
          "internalType": "uint256",
          "name": "",
          "type": "uint256"
        }
      ],
      "stateMutability": "view",
      "type": "function",
      "constant": true
    },
    {
      "inputs": [],
      "name": "x",
      "outputs": [
        {
          "internalType": "uint256",
          "name": "",
          "type": "uint256"
        }
      ],
      "stateMutability": "view",
      "type": "function",
      "constant": true
    },
    {
      "inputs": [],
      "name": "y",
      "outputs": [
        {
          "internalType": "uint256",
          "name": "",
          "type": "uint256"
        }
      ],
      "stateMutability": "view",
      "type": "function",
      "constant": true
    },
    {
      "inputs": [],
      "name": "surface",
      "outputs": [
        {
          "internalType": "uint256",
          "name": "",
          "type": "uint256"
        }
      ],
      "stateMutability": "view",
      "type": "function",
      "constant": true
    },
    {
      "inputs": [],
      "name": "afficheInfos",
      "outputs": [
        {
          "internalType": "string",
          "name": "",
          "type": "string"
        }
      ],
      "stateMutability": "pure",
      "type": "function",
      "constant": true
    },
    {
      "inputs": [],
      "name": "afficheLoLa",
      "outputs": [
        {
          "internalType": "string",
          "name": "",
          "type": "string"
        }
      ],
      "stateMutability": "view",
      "type": "function",
      "constant": true
    }
  ],
  "bytecode": "0x608060405234801561001057600080fd5b506040516105b93803806105b983398101604081905261002f91610046565b60009390935560019190915560025560035561007c565b6000806000806080858703121561005c57600080fd5b505082516020840151604085015160609095015191969095509092509050565b61052e8061008b6000396000f3fe608060405234801561001057600080fd5b50600436106100935760003560e01c806390c33c3f1161006657806390c33c3f146100da5780639361c232146100e3578063a56dfe4a146100f8578063cd514e4014610101578063cfa8d7a41461010957600080fd5b80630c55699c146100985780630e94ba83146100b45780637780c14f146100bc57806383a443a6146100c5575b600080fd5b6100a160005481565b6040519081526020015b60405180910390f35b6100a1610139565b6100a160025481565b6100cd610150565b6040516100ab9190610314565b6100a160035481565b6100f66100f1366004610347565b61018d565b005b6100a160015481565b6100cd6101c0565b6040805180820190915260148152734a65207375697320756e2052656374616e676c6560601b60208201526100cd565b600060035460025461014b919061037f565b905090565b606061015d6002546101e9565b6101686003546101e9565b60405160200161017992919061039c565b604051602081830303815290604052905090565b8160008082825461019e91906103fa565b9250508190555080600160008282546101b791906103fa565b90915550505050565b60606101cd6000546101e9565b6101d86001546101e9565b60405160200161017992919061040d565b6060816000036102105750506040805180820190915260018152600360fc1b602082015290565b8160005b811561023a57806102248161045e565b91506102339050600a8361048d565b9150610214565b60008167ffffffffffffffff811115610255576102556104a1565b6040519080825280601f01601f19166020018201604052801561027f576020820181803683370190505b5090505b84156102e857610294600a866104b7565b61029f9060306103fa565b60f81b816102ac846104cb565b935083815181106102bf576102bf6104e2565b60200101906001600160f81b031916908160001a9053506102e1600a8661048d565b9450610283565b949350505050565b60005b8381101561030b5781810151838201526020016102f3565b50506000910152565b60208152600082518060208401526103338160408501602087016102f0565b601f01601f19169190910160400192915050565b6000806040838503121561035a57600080fd5b50508035926020909101359150565b634e487b7160e01b600052601160045260246000fd5b808202811582820484141761039657610396610369565b92915050565b6a02637b733bab2bab9101e960ad1b8152600083516103c281600b8501602088016102f0565b6b016102630b933b2bab9101e960a51b600b9184019182015283516103ee8160178401602088016102f0565b01601701949350505050565b8082018082111561039657610396610369565b6303c101e960e51b81526000835161042c8160048501602088016102f0565b65016103c901e960d51b600491840191820152835161045281600a8401602088016102f0565b01600a01949350505050565b60006001820161047057610470610369565b5060010190565b634e487b7160e01b600052601260045260246000fd5b60008261049c5761049c610477565b500490565b634e487b7160e01b600052604160045260246000fd5b6000826104c6576104c6610477565b500690565b6000816104da576104da610369565b506000190190565b634e487b7160e01b600052603260045260246000fdfea2646970667358221220a5dadfefd238307581bf5e5db7701f99f0b3abdf8f6817a18b216b1e26c96a9c64736f6c63430008150033",
  "immutableReferences": {},
  "source": "// SPDX-License-Identifier: MIT\npragma solidity ^0.8.0;\n\nabstract contract Forme {\n    uint public x;\n    uint public y;\n\n    constructor(uint _x, uint _y) {\n        x = _x;\n        y = _y;\n    }\n\n    // Deplace la forme dans le plan.\n    function deplacerForme(uint dx, uint dy) public {\n        x += dx;\n        y += dy;\n    }\n\n    // Affiche les coordonnees courantes.\n    function afficheXY() public view returns (string memory) {\n        return string.concat(\"x = \", uint2str(x), \", y = \", uint2str(y));\n    }\n\n    function afficheInfos() public virtual pure returns (string memory);\n\n    function surface() public virtual view returns (uint);\n\n    // Convertit un uint en chaine pour l'affichage.\n    function uint2str(uint _i) internal pure returns (string memory) {\n        if (_i == 0) {\n            return \"0\";\n        }\n\n        uint j = _i;\n        uint len;\n\n        while (j != 0) {\n            len++;\n            j /= 10;\n        }\n\n        bytes memory bstr = new bytes(len);\n\n        while (_i != 0) {\n            bstr[--len] = bytes1(uint8(48 + (_i % 10)));\n            _i /= 10;\n        }\n\n        return string(bstr);\n    }\n}\n\ncontract Rectangle is Forme {\n    uint public lo;\n    uint public la;\n\n    constructor(uint _x, uint _y, uint _lo, uint _la) Forme(_x, _y) {\n        lo = _lo;\n        la = _la;\n    }\n\n    // Calcule la surface du rectangle.\n    function surface() public view override returns (uint) {\n        return lo * la;\n    }\n\n    // Retourne une description simple du type.\n    function afficheInfos() public pure override returns (string memory) {\n        return \"Je suis un Rectangle\";\n    }\n\n    // Affiche la longueur et la largeur.\n    function afficheLoLa() public view returns (string memory) {\n        return string.concat(\"Longueur = \", uint2str(lo), \", Largeur = \", uint2str(la));\n    }\n}",
  "sourcePath": "C:\\Users\\hp\\Desktop\\Projet_Blockchaine\\contracts\\Exercise7.sol",
  "compiler": {
    "name": "solc",
    "version": "0.8.21+commit.d9974bed.Emscripten.clang"
  },
  "schemaVersion": "3.4.16",
  "updatedAt": "2026-06-15T18:01:10.379Z",
  "networkType": "ethereum",
  "devdoc": {
    "kind": "dev",
    "methods": {},
    "version": 1
  },
  "userdoc": {
    "kind": "user",
    "methods": {},
    "version": 1
  }
}