{
  "contractName": "Exercise6",
  "abi": [
    {
      "inputs": [],
      "stateMutability": "nonpayable",
      "type": "constructor"
    },
    {
      "inputs": [
        {
          "internalType": "uint256",
          "name": "",
          "type": "uint256"
        }
      ],
      "name": "nombres",
      "outputs": [
        {
          "internalType": "uint256",
          "name": "",
          "type": "uint256"
        }
      ],
      "stateMutability": "view",
      "type": "function"
    },
    {
      "inputs": [
        {
          "internalType": "uint256",
          "name": "_nombre",
          "type": "uint256"
        }
      ],
      "name": "ajouterNombre",
      "outputs": [],
      "stateMutability": "nonpayable",
      "type": "function"
    },
    {
      "inputs": [
        {
          "internalType": "uint256",
          "name": "index",
          "type": "uint256"
        }
      ],
      "name": "getElement",
      "outputs": [
        {
          "internalType": "uint256",
          "name": "",
          "type": "uint256"
        }
      ],
      "stateMutability": "view",
      "type": "function"
    },
    {
      "inputs": [],
      "name": "afficheTableau",
      "outputs": [
        {
          "internalType": "uint256[]",
          "name": "",
          "type": "uint256[]"
        }
      ],
      "stateMutability": "view",
      "type": "function"
    },
    {
      "inputs": [],
      "name": "calculerSomme",
      "outputs": [
        {
          "internalType": "uint256",
          "name": "",
          "type": "uint256"
        }
      ],
      "stateMutability": "view",
      "type": "function"
    }
  ],
  "bytecode": "0x608060405234801561000f575f80fd5b506040518060800160405280600a60ff168152602001601460ff168152602001601e60ff168152602001602860ff168152505f906004610050929190610056565b506100c1565b828054828255905f5260205f20908101928215610095579160200282015b82811115610094578251829060ff16905591602001919060010190610074565b5b5090506100a291906100a6565b5090565b5b808211156100bd575f815f9055506001016100a7565b5090565b610551806100ce5f395ff3fe608060405234801561000f575f80fd5b5060043610610055575f3560e01c80631f4440b0146100595780633a7d22bc146100775780637692fb5f146100a7578063bd92c667146100d7578063e66df334146100f3575b5f80fd5b610061610111565b60405161006e919061032e565b60405180910390f35b610091600480360381019061008c919061037c565b610166565b60405161009e91906103b6565b60405180910390f35b6100c160048036038101906100bc919061037c565b6101d0565b6040516100ce91906103b6565b60405180910390f35b6100f160048036038101906100ec919061037c565b6101ef565b005b6100fb610217565b60405161010891906103b6565b60405180910390f35b60605f80548060200260200160405190810160405280929190818152602001828054801561015c57602002820191905f5260205f20905b815481526020019060010190808311610148575b5050505050905090565b5f808054905082106101ad576040517f08c379a00000000000000000000000000000000000000000000000000000000081526004016101a490610429565b60405180910390fd5b5f82815481106101c0576101bf610447565b5b905f5260205f2001549050919050565b5f81815481106101de575f80fd5b905f5260205f20015f915090505481565b5f81908060018154018082558091505060019003905f5260205f20015f909190919091505550565b5f805f90505f5b5f80549050811015610266575f818154811061023d5761023c610447565b5b905f5260205f2001548261025191906104a1565b9150808061025e906104d4565b91505061021e565b508091505090565b5f81519050919050565b5f82825260208201905092915050565b5f819050602082019050919050565b5f819050919050565b6102a981610297565b82525050565b5f6102ba83836102a0565b60208301905092915050565b5f602082019050919050565b5f6102dc8261026e565b6102e68185610278565b93506102f183610288565b805f5b8381101561032157815161030888826102af565b9750610313836102c6565b9250506001810190506102f4565b5085935050505092915050565b5f6020820190508181035f83015261034681846102d2565b905092915050565b5f80fd5b61035b81610297565b8114610365575f80fd5b50565b5f8135905061037681610352565b92915050565b5f602082840312156103915761039061034e565b5b5f61039e84828501610368565b91505092915050565b6103b081610297565b82525050565b5f6020820190506103c95f8301846103a7565b92915050565b5f82825260208201905092915050565b7f496e64657820686f7273206c696d6974657300000000000000000000000000005f82015250565b5f6104136012836103cf565b915061041e826103df565b602082019050919050565b5f6020820190508181035f83015261044081610407565b9050919050565b7f4e487b71000000000000000000000000000000000000000000000000000000005f52603260045260245ffd5b7f4e487b71000000000000000000000000000000000000000000000000000000005f52601160045260245ffd5b5f6104ab82610297565b91506104b683610297565b92508282019050808211156104ce576104cd610474565b5b92915050565b5f6104de82610297565b91507fffffffffffffffffffffffffffffffffffffffffffffffffffffffffffffffff82036105105761050f610474565b5b60018201905091905056fea26469706673582212206b454c40bcb899dd6e658ea88ba0f25f0c314a960a4b323a83b646361e0f948464736f6c63430008150033",
  "immutableReferences": {},
  "source": "// SPDX-License-Identifier: MIT\r\npragma solidity ^0.8.20;\r\n\r\ncontract Exercise6 {\r\n    uint[] public nombres;\r\n\r\n    constructor() {\r\n        nombres = [10, 20, 30, 40]; // Initialisation\r\n    }\r\n\r\n    function ajouterNombre(uint _nombre) public {\r\n        nombres.push(_nombre);\r\n    }\r\n\r\n    function getElement(uint index) public view returns (uint) {\r\n        require(index < nombres.length, \"Index hors limites\");\r\n        return nombres[index];\r\n    }\r\n\r\n    function afficheTableau() public view returns (uint[] memory) {\r\n        return nombres;\r\n    }\r\n\r\n    function calculerSomme() public view returns (uint) {\r\n        uint somme = 0;\r\n        for (uint i = 0; i < nombres.length; i++) {\r\n            somme += nombres[i];\r\n        }\r\n        return somme;\r\n    }\r\n}",
  "sourcePath": "C:\\Users\\hp\\Desktop\\Projet_Blockchaine\\contracts\\Exercise6.sol",
  "compiler": {
    "name": "solc",
    "version": "0.8.21+commit.d9974bed.Emscripten.clang"
  },
  "schemaVersion": "3.4.16",
  "updatedAt": "2026-05-26T13:23:17.188Z",
  "devdoc": {
    "kind": "dev",
    "methods": {},
    "version": 1
  },
  "userdoc": {
    "kind": "user",
    "methods": {},
    "version": 1
  }
}