{
  "contractName": "Exercise1",
  "abi": [
    {
      "inputs": [],
      "name": "nombre1",
      "outputs": [
        {
          "internalType": "uint256",
          "name": "",
          "type": "uint256"
        }
      ],
      "stateMutability": "view",
      "type": "function"
    },
    {
      "inputs": [],
      "name": "nombre2",
      "outputs": [
        {
          "internalType": "uint256",
          "name": "",
          "type": "uint256"
        }
      ],
      "stateMutability": "view",
      "type": "function"
    },
    {
      "inputs": [],
      "name": "addition1",
      "outputs": [
        {
          "internalType": "uint256",
          "name": "",
          "type": "uint256"
        }
      ],
      "stateMutability": "view",
      "type": "function"
    },
    {
      "inputs": [
        {
          "internalType": "uint256",
          "name": "a",
          "type": "uint256"
        },
        {
          "internalType": "uint256",
          "name": "b",
          "type": "uint256"
        }
      ],
      "name": "addition2",
      "outputs": [
        {
          "internalType": "uint256",
          "name": "",
          "type": "uint256"
        }
      ],
      "stateMutability": "pure",
      "type": "function"
    },
    {
      "inputs": [
        {
          "internalType": "uint256",
          "name": "_nombre1",
          "type": "uint256"
        },
        {
          "internalType": "uint256",
          "name": "_nombre2",
          "type": "uint256"
        }
      ],
      "name": "setNombres",
      "outputs": [],
      "stateMutability": "nonpayable",
      "type": "function"
    }
  ],
  "bytecode": "0x608060405234801561000f575f80fd5b506102788061001d5f395ff3fe608060405234801561000f575f80fd5b5060043610610055575f3560e01c80634d3e46e41461005957806356620c8a146100775780637a5ba404146100955780639ac7c4e6146100b3578063f1d16438146100cf575b5f80fd5b6100616100ff565b60405161006e919061015d565b60405180910390f35b61007f610114565b60405161008c919061015d565b60405180910390f35b61009d61011a565b6040516100aa919061015d565b60405180910390f35b6100cd60048036038101906100c891906101a4565b61011f565b005b6100e960048036038101906100e491906101a4565b610130565b6040516100f6919061015d565b60405180910390f35b5f6001545f5461010f919061020f565b905090565b60015481565b5f5481565b815f81905550806001819055505050565b5f818361013d919061020f565b905092915050565b5f819050919050565b61015781610145565b82525050565b5f6020820190506101705f83018461014e565b92915050565b5f80fd5b61018381610145565b811461018d575f80fd5b50565b5f8135905061019e8161017a565b92915050565b5f80604083850312156101ba576101b9610176565b5b5f6101c785828601610190565b92505060206101d885828601610190565b9150509250929050565b7f4e487b71000000000000000000000000000000000000000000000000000000005f52601160045260245ffd5b5f61021982610145565b915061022483610145565b925082820190508082111561023c5761023b6101e2565b5b9291505056fea2646970667358221220a4bbf0263bbb4670df95594f0d2064a0d91e406dd3f7cd9215505e2cbf9111d764736f6c63430008150033",
  "immutableReferences": {},
  "source": "// SPDX-License-Identifier: MIT\r\npragma solidity ^0.8.20;\r\n\r\ncontract Exercise1 {\r\n    uint public nombre1;\r\n    uint public nombre2;\r\n\r\n    // Fonction view : utilise les variables d'état\r\n    function addition1() public view returns (uint) {\r\n        return nombre1 + nombre2;\r\n    }\r\n\r\n    // Fonction pure : prend des paramètres\r\n    function addition2(uint a, uint b) public pure returns (uint) {\r\n        return a + b;\r\n    }\r\n\r\n    // Setter pour tester\r\n    function setNombres(uint _nombre1, uint _nombre2) public {\r\n        nombre1 = _nombre1;\r\n        nombre2 = _nombre2;\r\n    }\r\n}",
  "sourcePath": "C:\\Users\\hp\\Desktop\\Projet_Blockchaine\\contracts\\Exercise1.sol",
  "compiler": {
    "name": "solc",
    "version": "0.8.21+commit.d9974bed.Emscripten.clang"
  },
  "schemaVersion": "3.4.16",
  "updatedAt": "2026-05-26T13:23:17.171Z",
  "devdoc": {
    "kind": "dev",
    "methods": {},
    "version": 1
  },
  "userdoc": {
    "kind": "user",
    "methods": {},
    "version": 1
  }
}