{
  "contractName": "GestionChaines",
  "abi": [
    {
      "inputs": [],
      "name": "message",
      "outputs": [
        {
          "internalType": "string",
          "name": "",
          "type": "string"
        }
      ],
      "stateMutability": "view",
      "type": "function"
    },
    {
      "inputs": [
        {
          "internalType": "string",
          "name": "_message",
          "type": "string"
        }
      ],
      "name": "setMessage",
      "outputs": [],
      "stateMutability": "nonpayable",
      "type": "function"
    },
    {
      "inputs": [],
      "name": "getMessage",
      "outputs": [
        {
          "internalType": "string",
          "name": "",
          "type": "string"
        }
      ],
      "stateMutability": "view",
      "type": "function"
    },
    {
      "inputs": [
        {
          "internalType": "string",
          "name": "a",
          "type": "string"
        },
        {
          "internalType": "string",
          "name": "b",
          "type": "string"
        }
      ],
      "name": "concatener",
      "outputs": [
        {
          "internalType": "string",
          "name": "",
          "type": "string"
        }
      ],
      "stateMutability": "pure",
      "type": "function"
    },
    {
      "inputs": [
        {
          "internalType": "string",
          "name": "_texte",
          "type": "string"
        }
      ],
      "name": "concatenerAvec",
      "outputs": [
        {
          "internalType": "string",
          "name": "",
          "type": "string"
        }
      ],
      "stateMutability": "view",
      "type": "function"
    },
    {
      "inputs": [
        {
          "internalType": "string",
          "name": "_texte",
          "type": "string"
        }
      ],
      "name": "longueur",
      "outputs": [
        {
          "internalType": "uint256",
          "name": "",
          "type": "uint256"
        }
      ],
      "stateMutability": "pure",
      "type": "function"
    },
    {
      "inputs": [
        {
          "internalType": "string",
          "name": "a",
          "type": "string"
        },
        {
          "internalType": "string",
          "name": "b",
          "type": "string"
        }
      ],
      "name": "comparer",
      "outputs": [
        {
          "internalType": "bool",
          "name": "",
          "type": "bool"
        }
      ],
      "stateMutability": "pure",
      "type": "function"
    }
  ],
  "bytecode": "0x60806040526040518060400160405280601081526020017f426f6e6a6f757220536f6c6964697479000000000000000000000000000000008152505f9081620000499190620002c1565b5034801562000056575f80fd5b50620003a5565b5f81519050919050565b7f4e487b71000000000000000000000000000000000000000000000000000000005f52604160045260245ffd5b7f4e487b71000000000000000000000000000000000000000000000000000000005f52602260045260245ffd5b5f6002820490506001821680620000d957607f821691505b602082108103620000ef57620000ee62000094565b5b50919050565b5f819050815f5260205f209050919050565b5f6020601f8301049050919050565b5f82821b905092915050565b5f60088302620001537fffffffffffffffffffffffffffffffffffffffffffffffffffffffffffffffff8262000116565b6200015f868362000116565b95508019841693508086168417925050509392505050565b5f819050919050565b5f819050919050565b5f620001a9620001a36200019d8462000177565b62000180565b62000177565b9050919050565b5f819050919050565b620001c48362000189565b620001dc620001d382620001b0565b84845462000122565b825550505050565b5f90565b620001f2620001e4565b620001ff818484620001b9565b505050565b5b8181101562000226576200021a5f82620001e8565b60018101905062000205565b5050565b601f82111562000275576200023f81620000f5565b6200024a8462000107565b810160208510156200025a578190505b62000272620002698562000107565b83018262000204565b50505b505050565b5f82821c905092915050565b5f620002975f19846008026200027a565b1980831691505092915050565b5f620002b1838362000286565b9150826002028217905092915050565b620002cc826200005d565b67ffffffffffffffff811115620002e857620002e762000067565b5b620002f48254620000c1565b620003018282856200022a565b5f60209050601f83116001811462000337575f841562000322578287015190505b6200032e8582620002a4565b8655506200039d565b601f1984166200034786620000f5565b5f5b82811015620003705784890151825560018201915060208501945060208101905062000349565b868310156200039057848901516200038c601f89168262000286565b8355505b6001600288020188555050505b505050505050565b610a4580620003b35f395ff3fe608060405234801561000f575f80fd5b506004361061007b575f3560e01c80634f759687116100595780634f759687146100fb5780639103ca331461012b578063ce6d41de1461015b578063e21f37ce146101795761007b565b806317646f891461007f578063368b8772146100af578063413d4384146100cb575b5f80fd5b6100996004803603810190610094919061048b565b610197565b6040516100a6919061051b565b60405180910390f35b6100c960048036038101906100c49190610534565b6101b1565b005b6100e560048036038101906100e09190610534565b6101c3565b6040516100f291906105f5565b60405180910390f35b61011560048036038101906101109190610534565b6101ee565b604051610122919061062d565b60405180910390f35b6101456004803603810190610140919061048b565b6101f8565b60405161015291906105f5565b60405180910390f35b610163610224565b60405161017091906105f5565b60405180910390f35b6101816102b3565b60405161018e91906105f5565b60405180910390f35b5f8180519060200120838051906020012014905092915050565b805f90816101bf9190610840565b5050565b60605f826040516020016101d89291906109c9565b6040516020818303038152906040529050919050565b5f81519050919050565b6060828260405160200161020d9291906109ec565b604051602081830303815290604052905092915050565b60605f805461023290610673565b80601f016020809104026020016040519081016040528092919081815260200182805461025e90610673565b80156102a95780601f10610280576101008083540402835291602001916102a9565b820191905f5260205f20905b81548152906001019060200180831161028c57829003601f168201915b5050505050905090565b5f80546102bf90610673565b80601f01602080910402602001604051908101604052809291908181526020018280546102eb90610673565b80156103365780601f1061030d57610100808354040283529160200191610336565b820191905f5260205f20905b81548152906001019060200180831161031957829003601f168201915b505050505081565b5f604051905090565b5f80fd5b5f80fd5b5f80fd5b5f80fd5b5f601f19601f8301169050919050565b7f4e487b71000000000000000000000000000000000000000000000000000000005f52604160045260245ffd5b61039d82610357565b810181811067ffffffffffffffff821117156103bc576103bb610367565b5b80604052505050565b5f6103ce61033e565b90506103da8282610394565b919050565b5f67ffffffffffffffff8211156103f9576103f8610367565b5b61040282610357565b9050602081019050919050565b828183375f83830152505050565b5f61042f61042a846103df565b6103c5565b90508281526020810184848401111561044b5761044a610353565b5b61045684828561040f565b509392505050565b5f82601f8301126104725761047161034f565b5b813561048284826020860161041d565b91505092915050565b5f80604083850312156104a1576104a0610347565b5b5f83013567ffffffffffffffff8111156104be576104bd61034b565b5b6104ca8582860161045e565b925050602083013567ffffffffffffffff8111156104eb576104ea61034b565b5b6104f78582860161045e565b9150509250929050565b5f8115159050919050565b61051581610501565b82525050565b5f60208201905061052e5f83018461050c565b92915050565b5f6020828403121561054957610548610347565b5b5f82013567ffffffffffffffff8111156105665761056561034b565b5b6105728482850161045e565b91505092915050565b5f81519050919050565b5f82825260208201905092915050565b5f5b838110156105b2578082015181840152602081019050610597565b5f8484015250505050565b5f6105c78261057b565b6105d18185610585565b93506105e1818560208601610595565b6105ea81610357565b840191505092915050565b5f6020820190508181035f83015261060d81846105bd565b905092915050565b5f819050919050565b61062781610615565b82525050565b5f6020820190506106405f83018461061e565b92915050565b7f4e487b71000000000000000000000000000000000000000000000000000000005f52602260045260245ffd5b5f600282049050600182168061068a57607f821691505b60208210810361069d5761069c610646565b5b50919050565b5f819050815f5260205f209050919050565b5f6020601f8301049050919050565b5f82821b905092915050565b5f600883026106ff7fffffffffffffffffffffffffffffffffffffffffffffffffffffffffffffffff826106c4565b61070986836106c4565b95508019841693508086168417925050509392505050565b5f819050919050565b5f61074461073f61073a84610615565b610721565b610615565b9050919050565b5f819050919050565b61075d8361072a565b6107716107698261074b565b8484546106d0565b825550505050565b5f90565b610785610779565b610790818484610754565b505050565b5b818110156107b3576107a85f8261077d565b600181019050610796565b5050565b601f8211156107f8576107c9816106a3565b6107d2846106b5565b810160208510156107e1578190505b6107f56107ed856106b5565b830182610795565b50505b505050565b5f82821c905092915050565b5f6108185f19846008026107fd565b1980831691505092915050565b5f6108308383610809565b9150826002028217905092915050565b6108498261057b565b67ffffffffffffffff81111561086257610861610367565b5b61086c8254610673565b6108778282856107b7565b5f60209050601f8311600181146108a8575f8415610896578287015190505b6108a08582610825565b865550610907565b601f1984166108b6866106a3565b5f5b828110156108dd578489015182556001820191506020850194506020810190506108b8565b868310156108fa57848901516108f6601f891682610809565b8355505b6001600288020188555050505b505050505050565b5f81905092915050565b5f815461092581610673565b61092f818661090f565b9450600182165f8114610949576001811461095e57610990565b60ff1983168652811515820286019350610990565b610967856106a3565b5f5b8381101561098857815481890152600182019150602081019050610969565b838801955050505b50505092915050565b5f6109a38261057b565b6109ad818561090f565b93506109bd818560208601610595565b80840191505092915050565b5f6109d48285610919565b91506109e08284610999565b91508190509392505050565b5f6109f78285610999565b9150610a038284610999565b9150819050939250505056fea2646970667358221220a8990e3a231f0607558a75b486f48cab7718446314ab239274a0c55102db9e0064736f6c63430008150033",
  "immutableReferences": {},
  "source": "// SPDX-License-Identifier: MIT\r\npragma solidity ^0.8.20;\r\n\r\ncontract GestionChaines {\r\n    string public message = \"Bonjour Solidity\";\r\n\r\n    function setMessage(string memory _message) public {\r\n        message = _message;\r\n    }\r\n\r\n    function getMessage() public view returns (string memory) {\r\n        return message;\r\n    }\r\n\r\n    function concatener(string memory a, string memory b) public pure returns (string memory) {\r\n        return string.concat(a, b);\r\n    }\r\n\r\n    function concatenerAvec(string memory _texte) public view returns (string memory) {\r\n        return string.concat(message, _texte);\r\n    }\r\n\r\n    function longueur(string memory _texte) public pure returns (uint) {\r\n        return bytes(_texte).length;\r\n    }\r\n\r\n    function comparer(string memory a, string memory b) public pure returns (bool) {\r\n        return keccak256(bytes(a)) == keccak256(bytes(b));\r\n    }\r\n}",
  "sourcePath": "C:\\Users\\hp\\Desktop\\Projet_Blockchaine\\contracts\\Exercice3.sol",
  "compiler": {
    "name": "solc",
    "version": "0.8.21+commit.d9974bed.Emscripten.clang"
  },
  "schemaVersion": "3.4.16",
  "updatedAt": "2026-05-26T13:23:17.161Z",
  "devdoc": {
    "kind": "dev",
    "methods": {},
    "version": 1
  },
  "userdoc": {
    "kind": "user",
    "methods": {},
    "version": 1
  }
}