{
  "contractName": "Rectangle",
  "abi": [
    {
      "inputs": [
        {
          "internalType": "uint256",
          "name": "_x",
          "type": "uint256"
        },
        {
          "internalType": "uint256",
          "name": "_y",
          "type": "uint256"
        },
        {
          "internalType": "uint256",
          "name": "_lo",
          "type": "uint256"
        },
        {
          "internalType": "uint256",
          "name": "_la",
          "type": "uint256"
        }
      ],
      "stateMutability": "nonpayable",
      "type": "constructor"
    },
    {
      "inputs": [],
      "name": "afficheXY",
      "outputs": [
        {
          "internalType": "string",
          "name": "",
          "type": "string"
        }
      ],
      "stateMutability": "view",
      "type": "function"
    },
    {
      "inputs": [
        {
          "internalType": "uint256",
          "name": "dx",
          "type": "uint256"
        },
        {
          "internalType": "uint256",
          "name": "dy",
          "type": "uint256"
        }
      ],
      "name": "deplacerForme",
      "outputs": [],
      "stateMutability": "nonpayable",
      "type": "function"
    },
    {
      "inputs": [],
      "name": "la",
      "outputs": [
        {
          "internalType": "uint256",
          "name": "",
          "type": "uint256"
        }
      ],
      "stateMutability": "view",
      "type": "function"
    },
    {
      "inputs": [],
      "name": "lo",
      "outputs": [
        {
          "internalType": "uint256",
          "name": "",
          "type": "uint256"
        }
      ],
      "stateMutability": "view",
      "type": "function"
    },
    {
      "inputs": [],
      "name": "x",
      "outputs": [
        {
          "internalType": "uint256",
          "name": "",
          "type": "uint256"
        }
      ],
      "stateMutability": "view",
      "type": "function"
    },
    {
      "inputs": [],
      "name": "y",
      "outputs": [
        {
          "internalType": "uint256",
          "name": "",
          "type": "uint256"
        }
      ],
      "stateMutability": "view",
      "type": "function"
    },
    {
      "inputs": [],
      "name": "surface",
      "outputs": [
        {
          "internalType": "uint256",
          "name": "",
          "type": "uint256"
        }
      ],
      "stateMutability": "view",
      "type": "function"
    },
    {
      "inputs": [],
      "name": "afficheInfos",
      "outputs": [
        {
          "internalType": "string",
          "name": "",
          "type": "string"
        }
      ],
      "stateMutability": "pure",
      "type": "function"
    },
    {
      "inputs": [],
      "name": "afficheLoLa",
      "outputs": [
        {
          "internalType": "string",
          "name": "",
          "type": "string"
        }
      ],
      "stateMutability": "view",
      "type": "function"
    }
  ],
  "bytecode": "0x608060405234801561000f575f80fd5b506040516109d53803806109d583398181016040528101906100319190610090565b8383815f819055508060018190555050508160028190555080600381905550505050506100f4565b5f80fd5b5f819050919050565b61006f8161005d565b8114610079575f80fd5b50565b5f8151905061008a81610066565b92915050565b5f805f80608085870312156100a8576100a7610059565b5b5f6100b58782880161007c565b94505060206100c68782880161007c565b93505060406100d78782880161007c565b92505060606100e88782880161007c565b91505092959194509250565b6108d4806101015f395ff3fe608060405234801561000f575f80fd5b5060043610610091575f3560e01c806390c33c3f1161006457806390c33c3f1461010d5780639361c2321461012b578063a56dfe4a14610147578063cd514e4014610165578063cfa8d7a41461018357610091565b80630c55699c146100955780630e94ba83146100b35780637780c14f146100d157806383a443a6146100ef575b5f80fd5b61009d6101a1565b6040516100aa9190610425565b60405180910390f35b6100bb6101a6565b6040516100c89190610425565b60405180910390f35b6100d96101bc565b6040516100e69190610425565b60405180910390f35b6100f76101c2565b60405161010491906104c8565b60405180910390f35b6101156101ff565b6040516101229190610425565b60405180910390f35b61014560048036038101906101409190610516565b610205565b005b61014f610238565b60405161015c9190610425565b60405180910390f35b61016d61023e565b60405161017a91906104c8565b60405180910390f35b61018b61027a565b60405161019891906104c8565b60405180910390f35b5f5481565b5f6003546002546101b79190610581565b905090565b60025481565b60606101cf6002546102b7565b6101da6003546102b7565b6040516020016101eb929190610648565b604051602081830303815290604052905090565b60035481565b815f808282546102159190610689565b925050819055508060015f82825461022d9190610689565b925050819055505050565b60015481565b606061024a5f546102b7565b6102556001546102b7565b604051602001610266929190610708565b604051602081830303815290604052905090565b60606040518060400160405280601481526020017f4a65207375697320756e2052656374616e676c65000000000000000000000000815250905090565b60605f82036102fd576040518060400160405280600181526020017f30000000000000000000000000000000000000000000000000000000000000008152509050610408565b5f8290505f5b5f821461032c57808061031590610749565b915050600a8261032591906107bd565b9150610303565b5f8167ffffffffffffffff811115610347576103466107ed565b5b6040519080825280601f01601f1916602001820160405280156103795781602001600182028036833780820191505090505b5090505b5f851461040157600a85610391919061081a565b603061039d9190610689565b60f81b81836103ab9061084a565b935083815181106103bf576103be610871565b5b60200101907effffffffffffffffffffffffffffffffffffffffffffffffffffffffffffff191690815f1a905350600a856103fa91906107bd565b945061037d565b8093505050505b919050565b5f819050919050565b61041f8161040d565b82525050565b5f6020820190506104385f830184610416565b92915050565b5f81519050919050565b5f82825260208201905092915050565b5f5b8381101561047557808201518184015260208101905061045a565b5f8484015250505050565b5f601f19601f8301169050919050565b5f61049a8261043e565b6104a48185610448565b93506104b4818560208601610458565b6104bd81610480565b840191505092915050565b5f6020820190508181035f8301526104e08184610490565b905092915050565b5f80fd5b6104f58161040d565b81146104ff575f80fd5b50565b5f81359050610510816104ec565b92915050565b5f806040838503121561052c5761052b6104e8565b5b5f61053985828601610502565b925050602061054a85828601610502565b9150509250929050565b7f4e487b71000000000000000000000000000000000000000000000000000000005f52601160045260245ffd5b5f61058b8261040d565b91506105968361040d565b92508282026105a48161040d565b915082820484148315176105bb576105ba610554565b5b5092915050565b7f4c6f6e6775657572203d20000000000000000000000000000000000000000000815250565b5f81905092915050565b5f6105fc8261043e565b61060681856105e8565b9350610616818560208601610458565b80840191505092915050565b7f2c204c617267657572203d200000000000000000000000000000000000000000815250565b5f610652826105c2565b600b8201915061066282856105f2565b915061066d82610622565b600c8201915061067d82846105f2565b91508190509392505050565b5f6106938261040d565b915061069e8361040d565b92508282019050808211156106b6576106b5610554565b5b92915050565b7f78203d2000000000000000000000000000000000000000000000000000000000815250565b7f2c2079203d200000000000000000000000000000000000000000000000000000815250565b5f610712826106bc565b60048201915061072282856105f2565b915061072d826106e2565b60068201915061073d82846105f2565b91508190509392505050565b5f6107538261040d565b91507fffffffffffffffffffffffffffffffffffffffffffffffffffffffffffffffff820361078557610784610554565b5b600182019050919050565b7f4e487b71000000000000000000000000000000000000000000000000000000005f52601260045260245ffd5b5f6107c78261040d565b91506107d28361040d565b9250826107e2576107e1610790565b5b828204905092915050565b7f4e487b71000000000000000000000000000000000000000000000000000000005f52604160045260245ffd5b5f6108248261040d565b915061082f8361040d565b92508261083f5761083e610790565b5b828206905092915050565b5f6108548261040d565b91505f820361086657610865610554565b5b600182039050919050565b7f4e487b71000000000000000000000000000000000000000000000000000000005f52603260045260245ffdfea2646970667358221220cf459f155e97190fbfeae11daea700e5c017c4caa972fb7ef169977a8930510b64736f6c63430008150033",
  "immutableReferences": {},
  "source": "// SPDX-License-Identifier: MIT\r\npragma solidity ^0.8.20;\r\n\r\nabstract contract Forme {\r\n    uint public x;\r\n    uint public y;\r\n\r\n    constructor(uint _x, uint _y) {\r\n        x = _x;\r\n        y = _y;\r\n    }\r\n\r\n    function deplacerForme(uint dx, uint dy) public {\r\n        x += dx;\r\n        y += dy;\r\n    }\r\n\r\n    function afficheXY() public view returns (string memory) {\r\n        return string.concat(\"x = \", uint2str(x), \", y = \", uint2str(y));\r\n    }\r\n\r\n    function afficheInfos() public virtual pure returns (string memory);\r\n\r\n    function surface() public virtual view returns (uint);\r\n\r\n    // Helper pour convertir uint en string\r\n    function uint2str(uint _i) internal pure returns (string memory) {\r\n        if (_i == 0) return \"0\";\r\n        uint j = _i;\r\n        uint len;\r\n        while (j != 0) {\r\n            len++;\r\n            j /= 10;\r\n        }\r\n        bytes memory bstr = new bytes(len);\r\n        while (_i != 0) {\r\n            bstr[--len] = bytes1(uint8(48 + _i % 10));\r\n            _i /= 10;\r\n        }\r\n        return string(bstr);\r\n    }\r\n}\r\n\r\ncontract Rectangle is Forme {\r\n    uint public lo;\r\n    uint public la;\r\n\r\n    constructor(uint _x, uint _y, uint _lo, uint _la) Forme(_x, _y) {\r\n        lo = _lo;\r\n        la = _la;\r\n    }\r\n\r\n    function surface() public view override returns (uint) {\r\n        return lo * la;\r\n    }\r\n\r\n    function afficheInfos() public pure override returns (string memory) {\r\n        return \"Je suis un Rectangle\";\r\n    }\r\n\r\n    function afficheLoLa() public view returns (string memory) {\r\n        return string.concat(\"Longueur = \", uint2str(lo), \", Largeur = \", uint2str(la));\r\n    }\r\n}",
  "sourcePath": "C:\\Users\\hp\\Desktop\\Projet_Blockchaine\\contracts\\Exercise7.sol",
  "compiler": {
    "name": "solc",
    "version": "0.8.21+commit.d9974bed.Emscripten.clang"
  },
  "schemaVersion": "3.4.16",
  "updatedAt": "2026-05-26T13:23:17.200Z",
  "devdoc": {
    "kind": "dev",
    "methods": {},
    "version": 1
  },
  "userdoc": {
    "kind": "user",
    "methods": {},
    "version": 1
  }
}